:020000040000FA
:060000006DEFADF01200EF
:020006001200E6
:06000800D4EF8AF01200A3
:02000E0075700B
:0400100000646E001A
:02001400FFFFEC
:02001600FEFEEC
:06001800AEEF8AF01200B9
:02001E001700C9
:10002000795C0100BD09000001000000785C01005E
:10003000BC09000001000000765C0100B709000067
:1000400002000000115C01000007000065000000D4
:10005000105C0100BB090000010000000D5C010004
:10006000B209000003000000E45B01000009000089
:1000700029000000D25B0100E5070000120000002B
:10008000CE5B0100AE09000004000000CC5B010063
:10009000B509000002000000C45B0100F707000082
:1000A00008000000C35B0100BA0900000100000065
:1000B000C05B01007D0E000003000000785B0100C2
:1000C000000F000048000000625B0100480F0000C4
:1000D00016000000585B01008C0900000A000000B7
:1000E000575B0100B9090000010000001600000084
:1000F0005E0F0000020000005D5A0100FF070000D3
:1001000001000000535B0100AA0900000400000088
:10011000495B0100820900000A0000001400000091
:10012000FE040000020000003A5B0100E508000048
:040130000F000000BC
:0C013400030145510F015E5D01E1120066
:10014000FE0E5E5D11E01C0EE66EE66A290EE66E9E
:10015000030EE66E5E51AEEC18F0C7EC19F002E249
:10016000E16AE552E16E165045C35EFFFE0E0301E3
:10017000455D01E112001C0EE66EE66A4551AEECEB
:1001800018F0290EE66E030EE66EC7EC19F002E2D7
:10019000E16AE552E16E165012000F015E515F5D9B
:1001A00001E11200FE0E5F5D21E0270E0301C56F25
:1001B000C66B0301010EC46F0301020EC26F030E72
:1001C000C36F0F0129EC19F01B0E8EEC1AF0EFCF64
:1001D000C1F329EC19F0EECFBFF3EFCFC0F3030169
:1001E000270EBF5F000EC05B14EC16F05ECF5FFF02
:1001F000270E11EC19F029C3C2F32AC3C3F303017C
:10020000C25F000EC35B46EC1AF0020EBF6F030E16
:10021000C06F14EF16F00C016C0E1D6F150E1E6FE3
:100220000301005101110FE16AEC79F006C000F3FF
:1002300007C001F3FF0E03010017070E0117000EA0
:100240000027040E01233C0EE66EE66AE66AA90E5C
:10025000E66E070EE66EF5EC9BF0146E050EE15CA3
:1002600002E2E16AE552E16E14500C01156B146B69
:1002700014510BEC18F001E38ED014CC45F35ADF87
:100280003DEC17F076EC17F0F62A000EF722F82274
:100290000800F5CF1CFC3DEC17F076EC17F0020ED1
:1002A000F626000EF722F8220900F5CF16FC0A0008
:1002B000F5CF17FC3DEC17F013EC1BF0040EF626FF
:1002C000000EF722F8220900F5CF18FC0A00F5CF3E
:1002D00019FC0C011C5128E11DCC1AFC1ECC1BFC86
:1002E000270E176A1625166E1751172249EC1AF0B9
:1002F00016501825146E17501921B6EC1AF0145028
:100300001D2715501E231DCC14F01ECC15F0166AA7
:10031000176AD880FE0E14541E0E1554000E165483
:10032000000E175402E2EFD7FFD71CCC44F3270E80
:100330000C011A250301296F000E0C011B2103017A
:100340002A6F29510C01162503012B6F2A510C012C
:10035000172103012C6F010E2B27000E2C232B518C
:100360000C01182503012D6F2C510C0119210301DB
:100370002E6F0D0E3F6F409710DF3DEC17F004C05D
:1003800017F013EC1BF00800F5CF28F3ACEC0FF0DE
:100390000C01142B6DD712000B01076B07510BECEE
:1003A00018F001E395D007CB45F3C4DE0D0E030131
:1003B0003F5D01E08AD0F1DE03014D51285D01E08F
:1003C00084D0180E256F020E266F4A510CE14BC3E4
:1003D00012F34CC313F34087040E3F6F4BC342F339
:1003E0004CC343F36FD0000E005D040E015906E3C9
:1003F000880ED8800055130E015503E2006B040EE1
:10040000016F00C312F301C313F3002B000E01238D
:100410004BC310F34CC311F392EC1AF00301408963
:100420004A51040A25E0070A11E0020A02E0030A21
:1004300049E163EC19F0020E4A5D02E0000E01D0C2
:10044000010E2495E8B024853F6B3CD048514625E9
:10045000166E49514721B9EC18F063EC19F0276B7F
:10046000270E026F036B046B056B020E3F6F2AD0E1
:1004700046C3E9FF47C3EAFF6CEC19F046C3E9FF46
:1004800047C3EAFF1850EE24166E1950EE20B9EC5F
:1004900018F00A0EE66EE66A46C3E6FF47C3E6FFBB
:1004A000D3EC19F017EC19F002E2E16AE552E16EC3
:1004B00014500301050E3F6FCCEC1AF0020EAD6F25
:1004C000CFEC0BF00B01075112000B01072B66D785
:1004D000FE0C4EC345F32EDE030141A902D0419923
:1004E000010C000C4FC345F325DE070E03013F5DF1
:1004F00001E0000C010C50C345F300EC1AF00301BD
:100500003F51080A38E0010A36E0050A34E0020AE1
:100510002FE0050A1FE00D0A0FE0010A0DE0070AAF
:1005200031E0020A2FE0010A2DE0060A2BE0040A5E
:1005300022E16EEC8EF026D0A7EC18F003011451E6
:10054000151106E00E512F19F7E10F513019F4E1A2
:10055000080E0FD0A7EC18F003011451151106E096
:100560000E512F19F7E10F513019F4E10C0E01D0A3
:100570000D0E3F6F12000301AE6B0301140EAD6F41
:10058000CFEC0BF0ACEF0FF051C345F3D3DD03011B
:10059000409751C350F37BEF02F052C345F34EEC4A
:1005A0001AF00A0EE66EE66AD3EC19F0530EE66E08
:1005B000030EE66E17EC19F002E2E16AE552E16E15
:1005C000145010C35DF311C35EF3530E146E030E8B
:1005D000B6EF17F05FC345F34EEC1AF003010E516E
:1005E0002F1902E10F51301902E06FEC17F01200E1
:1005F00060C345F39FDD3FC30DFB070E0B010D5D8F
:1006000006E00B0E0D5D03E0F36AF46A12000301CD
:1006100031512F5D3251305916E329512B5D166E41
:100620002C512A55176E1606000E175A31512F5DA0
:10063000186E30513255196E1850165C146E1950E0
:100640001758B6EF17F02F51315D146E32513055F7
:10065000156E1406000E155A14C0F3FF15C0F4FFF2
:10066000120061C345F366DD61C360F3C1DFF3CF00
:1006700007FBF4CF08FB0B01F350F41001E1000C71
:10068000010E071904E1085102E152EC1AF00301CE
:100690004151010B0CE105EC1BF00B010751145CFF
:1006A0000851155804E352EC1AF003014181010E80
:1006B0000301C56FC66B0301C46F0301620EC26FF5
:1006C000030EC36FE3EC1AF003012F2B000E30234F
:1006D0002B512F5D2C51305902E350EC19F00B01D6
:1006E000010E071905E1085103E152EC1AF0010C63
:1006F000030140BB02D073EC17F0010C0B010B6B34
:100700000C6B63C345F316DD63C360F371DFF3CF96
:1007100009FBF4CF0AFB0B01F350F41005E156EC92
:100720001AF0F36AF46A120009CB07FB0ACB08FB44
:10073000E2EC19F004E266C307FB67C308FB415112
:10074000010B0CE105EC1BF00B010951145C0A5183
:10075000155804E356EC1AF00301418103012F51AF
:100760000B010725146E030130510B01082107EC22
:100770001AF01EE32F512B5D0B010B6F030130515B
:100780002C590B010C6F0BCBC5F3E8CFC6F337EC3C
:1007900018F00B010B51030164270B010C510301ED
:1007A00065230B010B51075F0C51085B50EC19F0EE
:1007B00007CBC5F308CBC6F337EC18F00B01075194
:1007C00003012F270B010851030130230B01E2EC39
:1007D00019F003E356EC1AF004D040BB02D073ECDE
:1007E00017F00B0107510B25146E08510C21B6EFC1
:1007F00017F00B010B6B0C6B68C345F39BDC68C3F4
:1008000060F3F6DEF3CF09FBF4CF0AFB0B01F350E4
:10081000F41005E15AEC1AF0F36AF46A12000301CD
:100820004151010B0CE105EC1BF00B010951145C6B
:100830000A51155804E35AEC1AF00301418109CB1F
:1008400007FB0ACB08FB73EC19F004E26CC307FB4F
:100850006DC308FB2F510B010725146E03013051A6
:100860000B01082107EC1AF022E32F512B5D0B013D
:100870000B6F030130512C590B010C6F0BCBCDF3D7
:10088000E8CFCEF37DEC18F00BCB14F00CCB15F0C9
:10089000166A14500301692715506A2316506B23FA
:1008A0000B010B51075F0C51085B50EC19F007CBA3
:1008B000CDF308CBCEF37DEC18F00B01075103010B
:1008C0002F270B0108510301302373EC19F003E3C8
:1008D0005AEC1AF004D040BB02D073EC17F00B01B5
:1008E00007510B25146E08510C21B6EF17F06FC39A
:1008F000E6FF70C3E6FFBEEC9CF0E552E552F3CF95
:1009000066F3F4CF67F36FC364F370C365F36EC32C
:1009100063F3F4DE03016F51F324146E7051F4207D
:10092000B6EF17F072C3E6FF73C3E6FF74C3E6FFCA
:10093000CCEC9CF0E552E552E55207C06CF308C0E0
:100940006DF372C369F373C36AF374C36BF371C35A
:1009500068F34FDF196A03017251F324146E735167
:10096000F420156E74511920166E14C007F015C0CE
:1009700008F0096E120075C345F39AEC00F003010C
:1009800029512B5D0B01026F03012A512C590B01D8
:10099000036F010E025F000E035B75C360F328DE78
:1009A000F3CF00FBF4CF01FB0B01F350025D146E9B
:1009B0000351F454B6EF17F076C377F30CD83AEC42
:1009C0001BF0F350F41006E076C345F300EC1AF088
:1009D0006FEC17F0120077C345F39AEC00F01DECB2
:1009E00019F006E33551335D146E3451365513D08A
:1009F00035512D5D166E2E513655176E49EC1AF095
:100A00002B51335D186E34512C55196E1650182425
:100A1000146E17501920B6EF17F078C377F3DBDFA9
:100A2000F3CF0AFBF4CF0BFB0B01F350F41001E101
:100A3000000C78C345F39AEC00F0030179517A1168
:100A40000FE0010E11EC19F035C3C2F336C3C3F346
:100A50000301C16F79C3BFF37AC3C0F314EC16F07E
:100A60000301352B000E362335512D5D36512E599D
:100A700002E25EEC1AF00B01010E0A1905E10B51BE
:100A800003E103014185010C030140BB02D0D5EC19
:100A900017F0010C0B01026B036B7BC377F39BDF39
:100AA000F3CF00FBF4CF01FB0B01F350F41003E193
:100AB000F36AF46A12007BC345F39AEC00F0030179
:100AC0007E510B01005D03017F510B01015904E2CE
:100AD00000CB7EF301CB7FF3030135517E25146EED
:100AE00036517F21CDEC19F029E235512D5D0B01F6
:100AF000026F030136512E590B01036F010E0227BD
:100B0000000E032303017C517D110EE002CBC5F3DF
:100B100003CBC6F340EC18F00B01025103017C2714
:100B20000B01035103017D230B01025103017E5F81
:100B30000B01035103017F5B5EEC1AF07C517D11C8
:100B400006E07EC3C5F37FC3C6F340EC18F0030193
:100B50007E5135277F5136230B01025103017E2739
:100B60000B01035103017F237E510B01005D146EC5
:100B7000015103017F55156E14507E5D15507F594C
:100B800002E3418504D040BB02D0D5EC17F07EC310
:100B9000F3FF7FC3F4FF120080C345F39AEC00F02B
:100BA00003012B512D5D0B01026F03012C512E59B6
:100BB0000B01036F80C377F30EDF0B01F350025D6F
:100BC000146E0351F454B6EF17F0030184518511EC
:100BD00003E1F36AF46A120081C345F39AEC00F072
:100BE00081C377F3F8DEF3CF02FBF4CF03FB0301FD
:100BF00086518425146E87518521156E0B01145082
:100C0000F35C1550F4580BE2030186510B01025DB1
:100C10000301846F87510B0103590301856F0301A1
:100C2000355186250B01006F0301365187210B01D9
:100C3000016F005103012D5D0B01015103012E597C
:100C400006E267EC17F00B01005F1550015B0B012A
:100C5000005103012D5D0B01046F015103012E5959
:100C60000B01056F010E0427000E052303018451BB
:100C70000B01045D030185510B01055907E384C392
:100C8000C5F385C3C6F3C0EC18F022D004CBC5F37E
:100C900005CBC6F3C0EC18F014EC16F00B010451B0
:100CA0000301845D0301C56F0B01055103018559E3
:100CB0007CEC19F056EC1BF0030182510B0104256A
:100CC0000301BF6F030183510B0105210301C06FB5
:100CD00014EC16F084C3F3FF85C3F4FF120089C33C
:100CE00086F38AC387F3010E0301846F856B0301CA
:100CF000060E826F0B0E836F88C381F366DF0B01D4
:100D00000651120003018E518F1103E1F36AF46A58
:100D100012008BC345F39AEC00F08BC377F35BDED4
:100D200003019051F35C0C01756F03019151F4586C
:100D30000C01766F85EC19F001E205D103019251A7
:100D400093110DE00C0175510301925D0C01765178
:100D50000301935904E292C375FC93C376FC3551A9
:100D600090250C01796F0301365191210C017A6FA6
:100D7000795103012D5D0C017A5103012E5906E2D0
:100D800067EC17F00C01795F15507A5B79CC73FC36
:100D90007ACC74FC0C01795103012D5D0C01776F45
:100DA0007A5103012E590C01786F010E7727000E3E
:100DB000782390C379FC91C37AFC8EC37BFC8FC3EC
:100DC0007CFC8CC37DFC8DC37EFC03018CC3E9FFDE
:100DD0008DC3EAFF8C2B8D23EFCF80FC0C01826B3F
:100DE0000301945109E0610E0C01805D05E380511F
:100DF0007A0802E3E00E80270C01200E816FE85094
:100E0000775D000E785902E277CC81FC8151755DE7
:100E1000000E765902E275CC81FC815111EC19F07B
:100E200073CCC2F374CCC3F346EC1AF0830EBF6FDD
:100E30000C0EC06F14EC16F00C0181515FEC19F030
:100E400073271550742381515FEC19F0775F1550AB
:100E5000785B7751781106E12BC373FC2CC374FCCB
:100E600077697869030194513EE00C017F6B8151F1
:100E70007F5D5FE212EC18F0EFCF14F0610E145CAE
:100E80000BE312EC18F0EF507A0806E3E00E146E54
:100E900012EC18F01450EF2612EC18F0EF50805DB1
:100EA0000EE10EEC1AF02CE0CCEC18F0610E805D37
:100EB00018E380517A0815E3E00E802712D07BCC2E
:100EC0008EF37CCC8FF382510CE08BEC18F0610E2A
:100ED0000C01805D05E380517A0802E3E00E802773
:100EE000826B7F2BC4D70C017F6B81517F5D21E228
:100EF00012EC18F0EF50805D10E10EEC1AF00AE1F0
:100F00000C017B51795D166E7A517C55176E7F51BD
:100F10004DEF18F0CCEC18F00AD07BCC8EF37CCCE3
:100F20008FF3825104E08BEC18F00C01826B7F2B65
:100F3000DCD70C0181515FEC19F0755F1550765BC1
:100F400085EC19F003E2F368F468120081515FEC5C
:100F500019F0792715507A234FD7030199519A1127
:100F600003E1F36AF46A120095C345F39AEC00F0CA
:100F700095C377F330DD03019B51F35C0C01026FE5
:100F800003019C51F4580C01036F8EEC19F001E23F
:100F900005D103019D519E110DE00C010251030189
:100FA0009D5D0C01035103019E5904E29DC302FCA7
:100FB0009EC303FC35519B250C01066F030136517E
:100FC0009C210C01076F065103012D5D0C01075197
:100FD00003012E5906E267EC17F00C01065F15506D
:100FE000075B06CC00FC07CC01FC0C010651030199
:100FF0002D5D0C01046F075103012E590C01056F83
:10100000010E0427000E05239BC306FC9CC307FCAE
:1010100099C308FC9AC309FC96C30AFC97C30BFC4E
:1010200098C30CFC030196C3F6FF962B97C3F7FFFA
:10103000EBEC1AF0106B03019F5109E0610E0C01FB
:101040000E5D05E30E517A0802E3E00E0E270C0157
:10105000200E0F6FE850045D000E055902E204CC2B
:101060000FFC0F51025D000E035902E202CC0FFC8F
:101070000F5111EC19F000CCC2F301CCC3F346ECD4
:101080001AF0110EBF6F0C0EC06F14EC16F00C01AD
:101090000F515FEC19F00027155001230F515FEC41
:1010A00019F0045F1550055B0451051106E12BC3CF
:1010B00000FC2CC301FC0469056903019F513EE05B
:1010C0000C010D6B0F510D5D5FE219EC18F0EFCFC5
:1010D00014F0610E145C0BE319EC18F0EF507A0871
:1010E00006E3E00E146E19EC18F01450EF2619EC1C
:1010F00018F0EF500E5D0EE115EC1AF02CE020EC2C
:1011000018F0610E0E5D18E30E517A0815E3E00E3B
:101110000E2712D008CC99F309CC9AF310510CE0A9
:10112000C0EC17F0610E0C010E5D05E30E517A085C
:1011300002E3E00E0E27106B0D2BC4D70C010D6BD4
:101140000F510D5D21E219EC18F0EF500E5D10E12A
:1011500015EC1AF00AE10C010851065D166E0751F4
:101160000955176E0D514DEF18F020EC18F00AD00C
:1011700008CC99F309CC9AF3105104E0C0EC17F0B5
:101180000C01106B0D2BDCD70C010F515FEC19F02B
:10119000025F1550035B8EEC19F003E2F368F4680C
:1011A00012000F515FEC19F00627155007234FD797
:1011B000A6C394F3A4C392F3A5C393F3A2C390F37D
:1011C000A3C391F3010E03018E6F8F6B0301A10E78
:1011D0008C6F030E8D6FA0C38BF382EF06F00C01B2
:1011E000356B35510BEC18F001E30DD235CC45F3DE
:1011F0009AEC00F00C01386B366B376B03014151F0
:10120000020B03E14151040B0EE0F0EC82F0000907
:101210000AE00C01100E386F03014151040B01E08C
:10122000010E0C01366F030140AB11D0F8ECABF0AE
:10123000030106503B5D146E07503C59156EE834AF
:1012400002E263EC1AF003E30C01100E386F0301A5
:1012500040AD09D034EC19F002E263EC1AF003E37C
:101260000C01100E386F0B0E03013F5D0CE134ECE6
:1012700019F002E263EC1AF006E30C01110E386F6C
:1012800003010C0E3F6F040E3F5D57E10C01396BFB
:101290003A6B030E395D000E3A594FE288EC1AF0B2
:1012A0003FEC1BF04AE088EC1AF0ABEC18F032ECA3
:1012B00018F00301425114183BE14351151838E16D
:1012C000CDEC00F00A0EE66EE66A88EC1AF097ECB8
:1012D00019F0D3EC19F0A7EC9BF0060EE15C02E2EA
:1012E000E16AE552E16E88EC1AF068EC1AF0EECF94
:1012F00010F3EDCF11F388EC1AF00C0E8EEC1AF00F
:10130000EECF0AF3EECF0BF3EECF0CF3EFCF0DF3EE
:1013100003010A2B0B230C230D23ECEC17F00C011B
:10132000120E386F0301060E3F6FEDEC16F005D07C
:101330000C01392B000E3A23ACD70C0138510AE0CE
:10134000365102E0000E01D0010E0301AE6F38CC21
:10135000ADF325DA030140B92FD0070E3F5D01E060
:101360004FD1F8EC17F001E04BD103014051070BCE
:10137000060816E14051080B01E0010E0C01386F20
:1013800035CC50F37BEC02F035CC50F37BEC02F023
:101390000C01385101E034D103010E0E3F6F30D102
:1013A000CDEC00F00301020EAE6F0301100EE0EC75
:1013B0001AF032EC17F024D1F8EC17F001E020D14C
:1013C000CDEC00F003013F510C0A01E1CDD0060A3B
:1013D00001E1C4D0030A01E1D0D0010A01E1BAD091
:1013E0000F0A01E1AED00C0A01E1ABD00D0A01E118
:1013F0009DD0030A01E187D0060A5AE0010A48E0BD
:10140000030A21E0010A01E0BDD069EC8EF0000979
:1014100001E1B8D00301010E3F6F24A50BD00901F3
:101420003F6F18C33CF919C33DF91AC33EF99BEC51
:101430008EF0A8D009013B6F18C339F919C33AF9E6
:101440007BEC8EF09FD009013B0E406F0C0E416F7C
:10145000BEEC8EF0000901E195D06EEC8EF0000933
:1014600013E03BCC18F33CCC19F33DCC1AF33ECC43
:101470001BF30301020E3F6FECEC17F0276B270EF6
:10148000026F036B046B50D032EC17F03F6B7AD0D5
:10149000F8ECABF006C03BF307C03CF30901180EB3
:1014A000656F030E666F2BECA0F00301030E29D0CD
:1014B00009011C0E696F030E6A6F0901180E676F30
:1014C000030E686F58ECA0F0000915E1F8ECABF0E2
:1014D00003013B51065C146E3C510758156E1450C5
:1014E000025D155003594EE2060E275D02E21CEC28
:1014F0001AF0020E06D00C01020E386F366B030193
:10150000050E3F6F3FD00C01020E386F010E366F93
:10151000040E0301275D36E3040E276F200E026FD1
:10152000EF0E036F090E046F056B2CD0020E275DC2
:1015300003E20C01120E1DD040B71FD00C01020EA9
:1015400007D0050E275D0DE3080E3F6F0C01110E4D
:10155000386F18D0050E275D10E209D0050E275D03
:101560000CE20C01100E05D0050E275D06E20C0101
:10157000110E386F010E366F05D00C01140E386F46
:10158000010E376F0C01385136E036512EE0030161
:101590001CEC1AF031510E5D0C01396F0301325110
:1015A0000F590C013A6F0301D8EC19F007E25CEC1B
:1015B00017F014500C01392715503A2339CC14F088
:1015C0003ACC15F0166A176A14500301EDEC18F0C6
:1015D0000C013951030114270C013A510301152361
:1015E0006BEC1AF00301AE6B03D00301010EAE6F7A
:1015F00038CCADF3D4D80C01375102E0ACEC0FF08D
:101600000C01352BEED5396B3A6B030E395D000EAC
:101610003A592FE288EC1AF03FEC1BF001E112007E
:1016200088EC1AF070EC1AF0F5EC18F016C0E6FF32
:1016300017C0E6FFF8ECABF0E552E7CF17F0E55244
:10164000E7CF16F01650065C146E17500758156E4B
:10165000DC0ED8801454010E155406E2EDEC16F0A1
:101660000C013907000E3A5B0C01392B000E3A23AE
:10167000CCD71200A7C3E9FFA8C3EAFFEECF14FC42
:10168000EECF15FCEECF16FCEFCF17FCA9C3E9FF98
:10169000AAC3EAFFEECF18FCEECF19FCEECF1AFC7E
:1016A000EFCF1BFC0C011C6B060E1D6FABC31EFCA9
:1016B000ACC31FFCABC38FF7ACC390F7D2EC7CF08C
:1016C000F3CF1EFCF4CF1FFC0C0E0701976F986B35
:1016D0000701140E956F0C0E966FEDEC7CF0F3CFB6
:1016E00020FCF4CF21FC0C01201F211FABC3CBF841
:1016F000ACC3CCF891EC84F0F3CF22FCF4CF23FC04
:101700000C01F350201948E12351211945E106014C
:10171000FC6BFD6BDCECA5F0140E0801D56FD66BED
:101720000801000ED36F0C0ED46FBDEC85F00301E1
:10173000000EB36F0C0EB46FCEDB0C010C510AEC33
:101740001BF0040DF35023EC1AF014C024FC1450C9
:10175000146E156AE8500301AB5DAB6F1550AC59C0
:10176000AC6F140EAB5F000EAC5BA7C3B1F3A8C3A4
:10177000B2F30301000EAF6F0C0EB06F67DA000911
:101780000BE0ABC3B7F3ACC3B8F30301000EB56F06
:101790000C0EB66F4BEC10F003EC83F0010CCDECAB
:1017A00000F00301ADA102D04187AD91409B409D67
:1017B000409F419341954191F0EC82F00009FCE09B
:1017C000060E0301AD1504E00C016B6B6C6BB3D01E
:1017D0000E512F1907E10F51301904E10C016B6B09
:1017E0006C6B91D02F510E5D30510F591FE20E518D
:1017F0002F5D0C016B6F03010F51305955EC19F03F
:1018000004E214C36BFC15C36CFCA0EC19F005E2F8
:1018100025C36BFC26C36CFC41856BCCC5F36CCC3B
:10182000C6F358EC18F0A9EC19F06DD00E512B5DF1
:101830000C01696F03010F512C590C016A6F69513A
:1018400003012F25146E0C016A5103013021156E1E
:101850002951145C0C016B6F03012A51155855EC8A
:1018600019F004E214C36BFC15C36CFCA0EC19F076
:1018700005E225C36BFC26C36CFC41850C01695154
:101880006B5D6A516C5904E26BCC69FC6CCC6AFCF0
:1018900069CCC5F36ACCC6F358EC18F00C01695159
:1018A0006B5D696F6A516C596A6F69516A1122E008
:1018B00069CCC5F36ACCC6F344C3C4F329C3C2F3ED
:1018C0002AC3C3F30301C16B03010E512B5D146ED8
:1018D0002C510F55156E166A176AB10E14260F0E8D
:1018E0001522000E1622172214C0BFF315C0C0F334
:1018F00014EC16F0A9EC19F02B510E5D2C510F5978
:1019000002E319EC1BF0030141A715D014510C019F
:101910006B1904E1030115510C016C190CE0030172
:1019200025510C016B1904E1030126510C016C19BE
:1019300002E00301AD810C016B516C1104E1030E57
:101940000301AD151CE00C016B510301145F0C0188
:101950006C510301155B0C016B516C1102E003012A
:10196000AD870301AEA107D0276BF20E026F9E0E6A
:10197000036F046B056B67EC18F0408929D0AEA3A8
:1019800019D0400EE96E030EEA6EEF50070BE82AFD
:10199000E850070BF36EF46EF80EEF14F310EF6ED1
:1019A0000607000E075B085B095B010E0C016B6FFD
:1019B0006C6B0ED040A90CD0AEB108D0275106E018
:1019C0002707D890053304330333023367EC18F04C
:1019D00012C347FC13C348FC10C349FC11C34AFCA3
:1019E00006C34BFC07C34CFC08C34DFC09C34EFCAB
:1019F0000AC34FFC0BC350FC0CC351FC0DC352FC7B
:101A00000C015391539353955397ADC354FC596BA9
:101A10005A6B6B51030106270C016C51030107231C
:101A2000000E08230923ADA315D0ADB905D00C01D4
:101A30004F6B506B516B526B030124A306D00C010A
:101A40004B074C5B4D5B4E5B05D0062B07230823F1
:101A5000092324830301ADA10DD024A106D00C01DC
:101A60004B074C5B4D5B4E5B05D0062B07230823D1
:101A7000092324811DEC19F00AE3D9EC18F00C01BC
:101A80001650145C556F17501558566F0DD03351C2
:101A9000355D0C01556F0301345136590C01566FF9
:101AA000010E555F000E565B29EC83F0F3CF45FC29
:101AB000F4CF46FC0C01400EF35C000EF45803E238
:101AC000456B466B04D0400E455F000E465B55519A
:101AD000455D5651465904E245CC55FC46CC56FC72
:101AE0000301470EB36F0C0EB46FF5D9140E0C0141
:101AF0006B27000E6C235389539B538D539F030117
:101B0000ADA323D0040E0C016B27000E6C23020E34
:101B10005B6F040E5C6F020E5D6F180E5E6F010E40
:101B2000146E530EE96E0C0EEA6EEF500AEC1BF0C9
:101B300014240F0BF36EF46EF346F346F346F346AC
:101B40000F0EEF14F310EF6EF45000CE5FFC01CED9
:101B500060FC02CE61FC03CE62FC18C363FC19C3B7
:101B600064FC1AC365FC1BC366FC0C01676B060EA4
:101B7000686F6BCC69FC6CCC6AFC6BCC8FF76CCC5F
:101B800090F7D2EC7CF0F3CF69FCF4CF6AFC0C0E3A
:101B90000701976F986B07015F0E956F0C0E966F9C
:101BA000EDEC7CF0F3CF57FCF4CF58FC0C01571F41
:101BB000581F0801890EC36F0F0EC46F51EC84F0DB
:101BC0006BCCFAF66CCCFBF60601060EF96F06013B
:101BD000180EF76F030EF86F69ECA5F0140E73EC96
:101BE0001AF0470ED86F0C0ED96FE1EC85F00301A7
:101BF000ADA309D0040E73EC1AF05B0ED86F0C0E77
:101C0000D96FE1EC85F008019D0EC56F0F0EC66F10
:101C10005EEC84F06BCCCBF86CCCCCF891EC84F01F
:101C2000F3CF45FCF4CF46FC0801AD0EC36F0F0E99
:101C3000C46F51EC84F0020E73EC1AF0450ED86FAD
:101C40000C0ED96FE1EC85F028EF84F063EC17F00F
:101C5000EE50ED1001E1000C0B01FE0E016FDDEC0A
:101C600019F06CEC19F0DDEC19F01850EE24166E3A
:101C70001950EE20176EACEC1AF01650EE24146ECC
:101C80001750EE20156E63EC17F01450EE18026F2B
:101C90001550EE18036F006B00510BEC18F048E282
:101CA00000CB45F39AEC00F00D0E03013F5D3DE0E3
:101CB000040E3F5D0BE110EC1BF01450421935E1AE
:101CC0001550431932E100CB01FB2FD00B0102511B
:101CD000030142192AE10B0103510301431925E1D4
:101CE000CDEC00F010EC1BF00301125114181DE1B3
:101CF000135115181AE1ACEC1AF0F5EC18F010516C
:101D0000161813E11151171810E1DDEC19F0EE501F
:101D100018190BE1EE50191908E1EE501A1905E1F6
:101D2000EE501B1902E101E1010C0B01002BB4D7AD
:101D3000FE0E015D26E001CB45F34EEC1AF0FE0EDF
:101D40000B01015D1EE002CB42F303CB43F3EAEC4F
:101D500019F0D3EC19F017EC19F002E2E16AE55240
:101D6000E16E1450ACEC1AF0EECF10F3EDCF11F39E
:101D700063EC17F0EECF12F3EDCF13F378EC1AF01B
:101D8000010CACEC1AF00D0E8EEC1AF0EF50020BB9
:101D900001E1000C0701E151E21101E0000C0B012F
:101DA000046B056B030E045D000E05593BE282ECEB
:101DB0001AF03FEC1BF036E082EC1AF0ABEC18F0B6
:101DC00032EC18F063EC17F0F5EC18F0165014181C
:101DD00024E11750151821E182EC1AF068EC1AF092
:101DE00032EC18F0ACEC1AF0F5EC18F016501418B0
:101DF00014E11750151811E1DDEC19F05AEC1BF045
:101E0000EE500001141808E1EE50151805E1EE50EF
:101E1000161802E1EE5017184DE00B01042B000ECE
:101E20000523C0D7006B00510BEC18F053E200CB38
:101E300045F39AEC00F0030140A749D0CDEC00F047
:101E400010EC1BF014500301121941E11550131945
:101E50003EE1EAEC19F082EC1AF097EC19F0C7ECCD
:101E600019F002E2E16AE552E16E1650ACEC1AF0AC
:101E700032EC18F082EC1AF068EC1AF014C0EEFFA5
:101E800015C0EDFFACEC1AF0040E8EEC1AF05AEC13
:101E90001BF00C0E8EEC1AF014C0EEFF1FEC1BF0C2
:101EA00010EC1BF082EC1AF0ABEC18F014C0EEFF53
:101EB00015C0EDFFF8ECABF007C015F082EC1AF09E
:101EC00070EC1AF006C0EEFF15C0EDFF000C0B0120
:101ED000002BA9D7000CB1EC1AF053EC17F0F3CF9C
:101EE000EEFF15C0EDFFB1EC1AF0020E8EEC1AF009
:101EF00053EC17F0020EF3CFEBFF030E3FEC19F09B
:101F0000040EA1EC17F0040E77EC18F0080EA1EC0B
:101F100017F0080E77EC18F00E0E8EEC1AF053EC5A
:101F200017F00E0EF3CFEBFF0F0E3FEC19F0ABECFA
:101F300018F053EC17F0100EF3CFEBFF110E3FEC3F
:101F400019F070EC1AF053EC17F0120EF3CFEBFF10
:101F5000130E15C0EBFF1200CDEC00F012C342F3DC
:101F600013C343F350EC19F029C331F32AC332F3FE
:101F70002BC333F32CC334F35EEC1AF0030140514E
:101F8000080B02E0040E01D00D0E3F6F409140930C
:101F900040954099409B409D409F41914193419580
:101FA00041974189249124932497249978EC1AF03D
:101FB0002EEC79F0F3CF06F3F4CF07F32EEC79F0A3
:101FC000F3CF08F3F4CF09F3030122692369010E6B
:101FD000146F156B12000C0E0601FC6FFD6BDCEC30
:101FE000A5F0BBEC85F00B01006FF00E0015E8408A
:101FF000E8403F0B23EC1AF014C000FB145046E0FD
:10200000070EB2EC19F00B010051000700093EE089
:102010007DEC1AF0E8503AE00105F5E0020E015DB2
:1020200026E1030E005D32E3026B036B7DEC1AF0D8
:10203000040E015D08E1BBEC85F00B01036FBBEC06
:1020400085F00B01026F180E025D020E03591EE3AC
:10205000B40ED8800255050E035504E2B40EF36E9B
:10206000050E17D002CBF3FF03CBF4FF1200020ED4
:10207000005D0CE37DEC1AF0E850005D07E30151D0
:10208000B2EC19F00B010151005FBDD7180EF36ED1
:10209000020EF46E1200D1EC1AF00D0E8EEC1AF056
:1020A000EFCF33FCD1EC1AF0080E8EEC1AF0EECF25
:1020B00034FCEECF35FCEECF36FCEFCF37FCD1EC65
:1020C0001AF0040E8EEC1AF0EECF38FCEECF39FC8D
:1020D000EECF3AFCEFCF3BFC03014091409340959B
:1020E00040B902D032EC17F03F51050A1FE0010A57
:1020F00008E0B7C33CFCB8C33DFC0C0133A14AD097
:1021000046D00C0133B510D033A906D0FAEC18F044
:10211000040EE0EC1AF008D033A306D09AEC18F0C5
:102120002AEC1AF0E6EF18F0ACEF0FF00C0133B523
:10213000120033A910D023EC19F00301061908E1AD
:10214000EE50071905E1EE50081902E1EE500919A9
:1021500002E084EF17F00C0133A33AEF15F09AEC8C
:1021600018F0BAEC19F0EECF14F3EDCF15F32AEC1A
:102170001AF00C0133A909D06FEC17F00301070E18
:102180003F6F32EC17F040991200E6EF18F03C2B4D
:10219000000E3D2333A303D03C2B000E3D231DEC4A
:1021A00019F00AE3D9EC18F00C011650145C316FE9
:1021B00017501558326F0DD03351355D0C01316F0A
:1021C0000301345136590C01326F010E315F000E9C
:1021D000325B0A0EE96E030EEA6EEE50385D2B6F2D
:1021E000EE5039592C6FEE503A592D6FEE503B5945
:1021F0002E6F2BCC2FFC2CCC30FC3E6B3C513D1178
:102200005FE03151321169E0800E2E1503E1A4EC3C
:1022100018F03BE33CCC14F03DCC15F0166A176A7D
:102220002B0EE96E0C0EEA6EEE501426EE501522BF
:10223000EE501622EE5017221734000E171809E63A
:10224000D880000E1454000E1554000E1654000EC3
:1022500017541DE23C51315D186E32513D55196ED7
:102260001A6A1B6A19AE02D01A681B681B502E1915
:10227000E8AE02D02E3508D02B51185C2C511958DD
:102280002D511A582E511B5802E3010E3E6F26ECB9
:102290001BF02E511718E8AE02D0173402D0F4EC20
:1022A0001AF01BE22F513C25186E30513D21196E5A
:1022B000E83413E218500008000E19540EE20BD057
:1022C0002B512C112D112E1106E0800E2E1505E13B
:1022D000A4EC18F002E2010E3E6F3E5104E133B56A
:1022E000C9D36FEF17F0060E331502E0ACEF0FF015
:1022F00033A9120003013F510C0A01E1B6D10B0AC8
:102300001CE00F0A1AE0010A18E0020A16E0010AAE
:1023100014E00C0A01E0B9D123EC19F0061908E128
:10232000EE50071905E1EE50081902E1EE500919C7
:1023300002E084EF17F0070E3F6F0E512F5D0C0186
:10234000296F03010F5130590C012A6F800E2A1595
:1023500008E003015CEC17F014500C01292715501C
:102360002A2329CC14F02ACC15F0166A176A43ECFC
:102370001BF0EE501424256FEE501520266FEE5002
:102380001620276FEE501720286F23EC19F0255DDB
:10239000146EEE502659156EEE502759166EEE50FB
:1023A0002859176E0001800E171402E0F2EF19F0A1
:1023B0000301BEEC19F015AE02D01668176843ECA5
:1023C0001BF01450EE5C0C01256F1550EE58266F73
:1023D0001650EE58276F1750EE58286F0301D8ECAF
:1023E00019F00BE248EC1BF014500C01255F15505E
:1023F000265B1650275B1750285B250EE96E0C0EE6
:10240000EA6EEE500C01345D256FEE503559266FA3
:10241000EE503659276FEE503759286FE834000ECA
:10242000281909E6D880000E2555000E2655000E05
:102430002755000E28556CE2030148EC1BF00C01F7
:102440002551145C265115582751165828511758F4
:102450005FE3030124972499419131C329FC32C3DE
:102460002AFC0C012551030131270C0126510301DF
:1024700032230C01295103010E5D0C012A51030185
:102480000F5909E3D8EC19F02FE20E51315D146EAB
:1024900032510F551BD05CEC17F00E5114240C0177
:1024A000296F03010F5115200C012A6F03013151CF
:1024B0000C01295D030132510C012A5915E2295101
:1024C0000301315D146E32510C012A55156E000165
:1024D0001450030106270001155003010723000EC5
:1024E000082309236BEC1AF003012B51315D2C51A9
:1024F000325906E35CEC17F01450315F1550325B33
:102500002B510E5D2C510F5928E319EC1BF025D0EF
:1025100003010E51311902E10F5132191EE024A7B7
:102520001BD024A918D0BEEC19F015AE02D0166845
:1025300017681450EDEC18F0D8EC19F009E248ECEB
:102540001BF015AE02D0166817681450EDEC18F0A9
:102550006BEC1AF04185248924872F5131191CE135
:102560003051321919E141B704D032EC17F04099DB
:1025700013D0BBEC17F010E1EE5035190DE1EE5021
:1025800036190AE1EE50371907E106E1030124513B
:10259000010B02E04099419723EC19F00301065D1D
:1025A000146EEE500759156EEE500859166EEE5027
:1025B0000959176EBAEC19F00C011450EE5C3F6F1C
:1025C0001550EE58406F03011451151106E10C012E
:1025D0003F51401102E0030141833FCC14F340CC52
:1025E00015F3080E03013F5D20E1BBEC17F04DE150
:1025F000EE5035194AE1EE50361947E1EE503719E1
:1026000044E143E103012451010B3FE092EC1AF055
:10261000BA0E030137271A0E3823030E3923000E92
:102620003A234089090E3F6F30D0090E3F5D0AE121
:102630000C0133B12AD0FAEC18F0140EE0EC1AF0C9
:10264000ACEF0FF00A0E3F5D20E1BBEC17F00CE1A0
:10265000EE50351909E1EE50361906E1EE50371902
:1026600003E101E007D278DC1200BBEC17F00CE1CB
:10267000EE50351909E1EE50361906E1EE503719E2
:1026800003E101E0F7D168DC12000C0133BB12005A
:102690000B0E03013F5D01E112000A0E3F5D01E1F7
:1026A00012000C0E3F5D01E11200B751B81101E1BB
:1026B00067D10C01303504E22F510008000E30556F
:1026C00001E2A2D02AEC18F0146E156A2F51F35CC7
:1026D0000601FC6F0C01305115580601FD6FDCEC52
:1026E000A5F00C012F510301B7270C013051030154
:1026F000B823B7510C01315D0301B8510C013259B7
:1027000004E231CCB7F332CCB8F30301B7510A2756
:10271000B8510B23000E0C230D233351B725146E33
:102720003451B821CDEC19F024E233512D5D0C0168
:10273000296F030134512E590C012A6F010E2927EC
:10274000000E2A232DEC1BF033C3BFF334C3C0F3B8
:102750009DEC1AF043EC19F0146EB8510C012A5597
:10276000156E03012B511424336F2C511520346F37
:102770000CD0C6EC1AF033C3BFF334C3C0F354DA41
:102780000301B7513327B8513423221D01E1231D22
:1027900001E1F6D0B751225FB851235B16512225D3
:1027A0000C01296F0301175123210C012A6F800EA0
:1027B0002A1502E0030125D00301233504E222514A
:1027C0000008000E235501E2DBD00C012951030162
:1027D0000A270C012A5103010B23000E0C230D23A1
:1027E0000C012951030133270C012A510301342321
:1027F00033512D5D34512E5904E269DB335F15509E
:10280000345B22692369BCD0303501E3B9D02F5144
:102810000008000E305501E3B3D00301B7510C019D
:102820002F25146E0301B8510C013021156E145080
:10283000315D1550325909E22F51315D0301B76FF7
:102840000C01305132590301B86F2AEC18F006011F
:10285000FC6FFD6BDCECA5F04CEC1BF0166E51EC44
:102860001BF0176E16500301B725146E1750B821D0
:10287000CDEC19F031E233512D5D146E2E513455EB
:10288000B6EC1AF00C012F51145C296F3051155819
:102890002A6F800E2A1508E12DEC1BF0FFEC18F0D2
:1028A000C06F9DEC1AF01DD0C6EC1AF04CEC1BF07A
:1028B000146E51EC1BF0156E03012B512D5D166E3D
:1028C0002E512C55176E49EC1AF003011650145C6A
:1028D000BF6F1750155804D0C6EC1AF0FFEC18F073
:1028E000C06FA2D90301221D0BE1231D09E12FCCEA
:1028F00022F330CC23F3B7C316F3B8C317F340D099
:1029000022510C012F5D030123510C0130591EE2AD
:102910004FDB06E30C0105EC19F02351195805E2D1
:10292000B7C316F3B8C317F30CD049EC19F00C0178
:102930002F51145C0301166F0C013051155803011F
:10294000176F2FCC22F330CC23F31AD031DB18E2EF
:1029500049EC19F00C012F51145C3051155810E35B
:1029600005EC19F0166E23511958176E1651165CA6
:10297000146E17511758156E14501627155017233B
:102980000C013C513D1119E0070E03013F5D04E0CD
:1029900033C335F334C336F340AF04D0A0DACDEC03
:1029A00000F00BD0408F40BD08D0408D31EC1AF0C4
:1029B0000F0E03013D27000E3E230C0133A15AD018
:1029C0000AC314F00BC315F00CC316F00DC317F0B7
:1029D000142A000E1522162217223CCC18F03DCCEA
:1029E00019F01A6A1B6A380EE96E0C0EEA6EEE5088
:1029F0001826EE501922EE501A22EE501B221450C7
:102A0000181838E11550191835E116501A1832E126
:102A100017501B182FE12EE133EC1BF03F51090A30
:102A200024E0010A12E00F0A06E0010A22E10C0E7E
:102A30003F6FA7EF18F00B0E3F6F31EC1AF01F0E2F
:102A400003013D27000E3E2314D095DA0AE1EE5033
:102A5000351907E1EE50361904E1EE50371901E15E
:102A600004E003010A0E3F6F04D0F2EC19F0ACEF62
:102A70000FF035DA1200B9C345F39AEC00F0030108
:102A8000BA51BB1103E1010EBA6FBB6B29512D5D29
:102A90000B01006F03012A512E590B01016F010E2A
:102AA000005F000E015B030138EC1AF00B011450BB
:102AB000005D1550015901E2000CCDEC00F0030E51
:102AC0000301BE1502E1030EBE13BCC304FBBDC36C
:102AD00005FB38EC1AF014500B01005F1550015B38
:102AE0000301BEA313D0BEA10CD000CB14F001CBC8
:102AF00015F0D8901532143214500B0104271550DC
:102B000004D00B0100510427015105230301295171
:102B10000B010425006F03012A510B010521016FF0
:102B2000010E0027000E012333C302FB34C303FB55
:102B30000301221D01E1231D13E0ABDB14500B0147
:102B4000022715500323025103012D5D0B01035190
:102B500003012E5905E2BBD90B01025F1550035B3F
:102B60000B0102510301355D0B010351030136597D
:102B70000CE20B0100510301355D0B010151030112
:102B8000365918E2BEA50ED0000CF8EC19F00AE296
:102B9000005103012B5D0B01015103012C590AE285
:102BA000BEB5000C00CB35F301CB36F300CB33F3CD
:102BB00001CB34F30301F8EC19F025E2040E030114
:102BC000BE1521E02B510B01025D0301C56F03010E
:102BD0002C510B01035990DB44C3C1F300CBBFF36D
:102BE00001CBC0F321D829DB0EE20B010051030118
:102BF0002B5D146E2C510B010155156E1450030101
:102C0000335F1550345B00CB2BF301CB2CF378EC06
:102C10001AF029C331F32AC332F342DB070E030152
:102C20003F5D01E15CD9010C0301C4512FE0010AB1
:102C300001E01200C15116E0010A01E01200C5C313
:102C4000E6FFC6C3E6FFC2C3E6FFC3C3E6FFBFC3DA
:102C5000E6FFC0C3E6FFEBDA02E2E16AE552E16EAD
:102C600014501200BF1D01E1C01D06E0BFC3C3F830
:102C7000C0C3C4F851EC84F0C5C3DAF8C6C3DBF8AE
:102C8000C2C3D8F8C3C3D9F8E1EF85F0C15117E04A
:102C9000010A01E01200C21D01E1C31D06E0C2C32A
:102CA000C5F8C3C3C6F85EEC84F0C5C3D5F8C6C387
:102CB000D6F8BFC3D3F8C0C3D4F8BDEF85F0C5C301
:102CC000D1F8C6C3D2F8C2C3CFF8C3C3D0F8BFC3CC
:102CD000CDF8C0C3CEF81BEC85F0B5EC85F000094B
:102CE000FCE012000301C95117E0010A01E01200E3
:102CF000CDC3E6FFCEC3E6FFC2DBC7C3E6FFC8C352
:102D0000E6FFD2EC9BF0146E070EE15C02E2E16A92
:102D1000E552E16E14501200C71D01E1C81D06E026
:102D2000C7C3C3F8C8C3C4F851EC84F0100E0C013B
:102D3000106F116B0301CD51CE1140E00C01105109
:102D40000301CD5D0C0111510301CE5904E2CDC345
:102D500010FCCEC311FC10CCE6FF11CCE6FF8FDBDC
:102D6000000EE66E0C0EE66ED2EC9BF0146E070EB3
:102D7000E15C02E2E16AE552E16E145010CCDAF84F
:102D800011CCDBF80801000ED86F0C0ED96FE1EC06
:102D900085F010CC14F011CC15F0166A1450030114
:102DA000CA271550CB231650CC230C011051030118
:102DB000CD5F0C0111510301CE5BBCD71200140E84
:102DC000EA02F3CFEAFFE902F3CFE9FFF450EA2683
:102DD000A90EE926070EEA22120039CCC5F33ACC37
:102DE000C6F30301020ED880C557000EC657140E55
:102DF000C603F3CFC6F3C503F3CFC5F3F450C6271C
:102E00000301010EC46F0C0139250301C26F000ECE
:102E10000C013A210301C36F140EC303F3CFC3F3B4
:102E2000C203F3CFC2F3F450C327A90EC227070E83
:102E3000C32356EC1BF0140E086E096A39CC0DF052
:102E40003ACC0EF06CECABF006C0BFF307C0C0F399
:102E5000A90E0301BF27070EC023E6DE0701E16BC1
:102E6000E26B12005FDB740E03013727350E382347
:102E7000060E3923000E3A231200B60E146E5A0EB7
:102E8000156E010E166E14CC17F0186A196A060E2C
:102E90000C6E0D6A0E6A14CC07F018C008F019C049
:102EA00009F08AEFABF0EECF8FF7EDCF90F7D2ECD1
:102EB0007CF0E0DBB1EF1AF029512B5D146E2C5140
:102EC0002A55156E120048DB020E8EEF1AF02B51B8
:102ED0002D5D146E2E512C5549DB145012005CDB15
:102EE000100EE0EF1AF062DB060E46D314500424F5
:102EF000F36E15500520F46E16500620F86EF4CFD0
:102F0000F7FFF3CFF6FF120006C338FC07C339FC06
:102F100008C33AFC09C33BFCD4DB3EDB040E50DBA8
:102F200038CC06F339CC07F33ACC08F33BCC09F3A1
:102F300012000301C46B0301C269C36944C3C1F336
:102F40001200ECDAEECF91F7EECF92F7EECF93F7D7
:102F5000EFCF94F7D7EC7CF006C014F007C015F063
:102F600008C016F009C017F0B1EF1AF0156E14C0C2
:102F7000F3FFF46E120087DBEE500C0134191200DF
:102F80000ACC96F30BCC97F30CCC98F303010ACC44
:102F9000F6FF962B0BCCF7FF000E97230CCCF8FF17
:102FA00098230800F5CF0EFC120000DB1F0EE4D2C0
:102FB0002F510301B725146E0C0130510301B821C4
:102FC000156E22511625166E23511721176E1450B7
:102FD000165C1550175812001A511825166E1B5101
:102FE0001921176E16501025146E1750112105D394
:102FF000EEECABF003013751065C146E3851075804
:10300000156E39510858166E3A510958176E00015D
:10301000800E17141200146E156A060E145C000E52
:10302000155812007F51EA6A830FE96E0C0EEA22EE
:1030300012000D51EA6A110FE96E0C0EEA2212001D
:1030400096C3F6FF962B97C3F7FF000EC4DA010E66
:10305000106F1200A6DA0C0E61DAEF50DBDA040D05
:10306000F3501200EECF14F0EFCF15F01200030171
:10307000010EC46F64C3C2F365C3C3F3E3EF1AF078
:1030800044C3C4F335C3C2F336C3C3F30FDB7CC3FD
:10309000BFF37DC3C0F314EF16F000011624146EC5
:1030A000000E172063DA14C0F3FF15C0F4FF1200FE
:1030B00044C3C4F30EC3C2F30FC3C3F30301C16B14
:1030C0000301B10EBF6F0F0EC06F14EF16F0EEECE0
:1030D000ABF0065003010225376F07500321386F0C
:1030E00008500421396F095005213A6F120016DA91
:1030F00006C0EEFFA4DAB1EF1AF069C3CAF36AC3DF
:10310000CBF36BC3CCF344C3C9F32FC3C7F330C3B2
:10311000C8F372EF16F07DCC8CF37ECC8DF30301F7
:103120007DCCE9FF7ECCEAFF8C2B000E8D23EFCF08
:1031300080FC120038CC0AF339CC0BF33ACC0CF3F8
:103140003BCC0DF333EF1BF081DAF4EF1AF024DA05
:10315000110EE0EF1AF0100E8EEF1AF01C0D8ADA45
:10316000000E1426050E152214C0E6FF15C0E6FF5A
:103170001200176E16504B25146E17504C213DD27D
:1031800044C3C4F300CBC2F301CBC3F38FDA82C3D1
:10319000BFF383C3C0F312008CC3E9FF8DC3EAFF02
:1031A0008C2B000E8D23EFCF80FC0C01010E826F63
:1031B00012002B512D5D146E2E512C55156E35516C
:1031C000335D166E34513655176E1200E5D9120E66
:1031D000F7D90301060E3F6F1200065F1550075B1B
:1031E0001650085B1750095B1200EECF16F0EFCFB8
:1031F00017F0120066DA0301AE6B030112004CDA1D
:103200000301BF6F4EDA030112002F510301B725EE
:10321000186E0C0130510301B821196E2251185C4F
:1032200012000301C56FC66B44C3C4F31200A7ECC0
:103230009BF0146E060EE15C120003013551335D04
:10324000365134591200340EE96E0C0EEA6EEE500F
:1032500012005F511C0DF3CFE9FFF4CFEAFF000E1F
:10326000E926050EEA221200F8ECABF00301065045
:103270003D5D146E07503E59156EE834120015C0BE
:10328000EBFFB1EF1AF0D0DC0C0129510301B75D5F
:10329000120022511625146E23511721156E1200AB
:1032A00029C32FF32AC330F312000C016C6F6B514A
:1032B0000301145D0C016C51030115591200146EC9
:1032C000156A1450120046C318F347C319F348C3D4
:1032D0001AF349C31BF31200020E20D9EECF18F0E7
:1032E000EFCF19F012000B01095103016C5D0B01C6
:1032F0000A5103016D5912000301C66F44C3C4F3A0
:103300002BC3C2F32CC3C3F3120003018E510C0173
:10331000755D03018F510C0176591200030199511B
:103320000C01025D03019A510C0103591200E9CF0F
:1033300014F0EACF15F0E9CFE6FFEACFE6FF12007E
:103340000C016B510301255D0C016C5103012659E1
:1033500012000C016B5103010E270C016C5103018B
:103360000F2312000801D56FD66B0801D36BD46B05
:10337000BDEF85F016D90E0E8EEF1AF031510E5DAD
:10338000146E0F513255156E166A176A1200A7ECAB
:103390009BF0166E060EE15C1200156E14502D5D4A
:1033A00015502E591200180EE66E030EE66E12002E
:1033B00031510E5D32510F591200B1C3E9FFB2C352
:1033C000EAFF120009510301665D0B010A51030176
:1033D000675912000A0EE66EE66AB1C3E6FFB2C391
:1033E000E6FF12000301AE6B0301100EE0EF1AF0CE
:1033F00035510B01025D030136510B0103591200D7
:103400009AEC00F033C335F334C336F31200156E73
:1034100003012B51145C2C511558120003018E0727
:10342000000E8F5B8E518F11120003019907000E61
:103430009A5B99519A111200272BD89002370337C3
:10344000043705371200146E156A140E145E000E50
:10345000155A1200EBEC0FF0F3CF25F3F4CF26F35F
:103460001200F8ECABF006C03DF307C03EF31200CB
:10347000BA51BC25146EBB51BD21156E1200CAC3D2
:10348000E6FFCBC3E6FFCCC3E6FF12000FD9030172
:103490001200010E1626000E172212009AEC00F000
:1034A000CDEF00F061C35FF3EAEF02F063C35FF3B7
:1034B000EAEF02F068C35FF3EAEF02F02BC335F3E3
:1034C0002CC336F3120014500008000E15541200DD
:1034D0000A0E8EEF1AF031C30EF332C30FF312004F
:1034E000120E8EEF1AF00801DA6FDB6B0801120082
:1034F00029C30EF32AC30FF31200BBEC85F00B01B6
:10350000016F120004CBE9FF05CBEAFFDFEF16F0F5
:1035100039CCE9FF3ACCEAFFDFEF16F0E926000EDE
:10352000EA221200EEECABF006C037F307C038F326
:1035300008C039F309C03AF31200A5DE0301C56FD4
:103540000C012A510301B8590301C66FF2DC2BC3E9
:10355000BFF32CC3C0F31200AFC3E9FFB0C3EAFF4F
:103560001200B3C3E9FFB4C3EAFF1200156E010EE7
:103570001426000E152212001426000E1522162203
:10358000172214C03BF315C03CF31200B7C3C5F3B8
:10359000B8C3C6F399EF17F00301010EAE6F030134
:1035A0001200B5C3E9FFB6C3EAFF1200408BF8EC86
:1035B000ABF006C014F007C015F0166A176A1200C7
:1035C000AD6FCFEF0BF044C3C1F32FC3BFF330C3D4
:1035D000C0F314EF16F0972398C3F8FF9823080060
:1035E000F5CF0EFC0C01120014502B5D15502C5918
:1035F00016502D5917502E591200156E14501219CD
:10360000426F15501319436F120056DCD8901532D3
:1036100014321200F00BE842E842E842E84212009D
:1036200052DC32EF18F005C018F006C019F076EF42
:1036300017F042DC14500E5F15500F5B120015C0DE
:10364000EEFF16C0EEFF17C0EEFF120031CC14F0F3
:1036500032CC15F0166A176A120029CCC5F32ACCB1
:10366000C6F399EF17F003010A2B000E0B230C236E
:103670000D231200F3CF14F0F4CF15F012006BDD20
:10368000EE50ED101200060EE96E030EEA6E120007
:1036900013DC166A176A1200030133510C012F253F
:1036A0001200030134510C01302112000301010EFC
:1036B000C16F1200EECF14F0EECF15F096DD82EF61
:1036C0001AF034CC06F335CC07F336CC08F337CCFC
:0436D00009F31200E8
:0C36D4000401046B0101C96BCA6BA10E5C
:1036E0000101C76FC86B0101C66B0101C26BC36BDF
:1036F000C46BC56B34EC73F00F01486F12000C0102
:10370000010EF96FFF0E0F01485D01E1010C48CF7A
:10371000E3F1CAEC76F048EC30F001E1010C48CF5F
:103720007DF4F7EC29F00C01EC6B0401EC0E416F19
:103730000C0E426F0401E40E3F6F0C0E406F04014B
:10374000ED0E3D6F0C0E3E6F1DDA0C01F36F030E94
:10375000F65D0AE0F3512FE00401ED0E436F0C0E0D
:10376000446FC1DA000927E0040104911CEC2FF03A
:1037700001E00481030E0C01F65D0FE0ECCC49F48E
:103780000401E40E476F0C0E486F0401ED0E456F07
:103790000C0E466FEDDA0C01F96F040104A102D0A2
:1037A0005FEC30F00C01F95106E00701005102E135
:1037B00012EC76F0010C35EC77F0010C23C42FF4F9
:1037C00024C430F425C4E6FF26C4E6FF120EE66EDC
:1037D000040EE66E84EC9CF0E552E552E552E552AB
:1037E00027C41AF428C41BF429C41CF42AC41DF4E9
:1037F0002BC41FF42CC420F42DC421F42EC422F4B5
:1038000004011E69120031C40AFC32C40BFC31C42D
:10381000E9FF32C4EAFFEECF00FCEECF01FCEECFB1
:1038200002FCEFCF03FCFF0E04011E5D17E1A20EA8
:103830000101C96FCA6B0101FE0EC76FC8690101A2
:10384000030EC66F00CCC2F101CCC3F102CCC4F1AF
:1038500003CCC5F134EC73F004011E6F1EC4CDF12E
:10386000E8EC74F0010801E0000C010C4FEC30F0C2
:1038700004013351060A1FE0020A18E0060A12E0AA
:10388000010A0CE0020A06E0010A1BE14FEC2EF0EF
:10389000010E0FD04FEC2EF0020E0BD04FEC2EF09D
:1038A000040E07D04FEC2EF0030E03D04FEC2EF099
:1038B000050EEF6E09D04FEC30F0520E146E0F0E65
:1038C00006D0F36AF46A1200490E146E0F0E14C08B
:1038D000F3FFF46E12001CEC2FF001E1E8D01EC4DF
:1038E0007DF4F7EC29F01AC402FC0C01120E006FF3
:1038F000040E016F6CEC31F000C419FC01C41AFC19
:10390000F4EC2DF089EC30F0F4EC2DF070EC31F0AB
:1039100002CC7EF4C1EC2FF00AE000CCE9FF01CC30
:10392000EAFF002B000E0123EFCF7EF4F3D7040152
:10393000A40E0FEC2EF000C41BFC01C41CFCF4EC24
:103940002DF00401160E856F0C0E91EC2FF01BC4A8
:103950007FF41CC480F427EC2AF0000901E1A5D013
:103960000C0128ADA2D00001E76B2ECCE3F02FCCE8
:10397000E4F030CCE5F031CCE6F0DDEC30F0C2EC38
:1039800030F00001020ED86F0C0EEEEC2DF002CCE0
:1039900016FC02CC7EF4C1EC2FF009E000013E0ED3
:1039A000D86F0C0EEEEC2DF03ECC7EF4F4D7040173
:1039B000400EEFEC30F000CE7EF404EC2AF001CEA5
:1039C0007EF404EC2AF002CE7EF404EC2AF003CE5E
:1039D0007EF404EC2AF089EC30F002C77EF404ECAB
:1039E0002AF089EC30F01DC47EF404EC2AF00401C6
:1039F000430EEFEC30F022C47EF404EC2AF021C434
:103A00007EF404EC2AF020C47EF404EC2AF01FC4F7
:103A10007EF404EC2AF06CEC31F000C41DFC01C40F
:103A20001EFCF4EC2DF06CEC31F000C41FFC01C462
:103A300020FCF4EC2DF00401150E856F0C0E91ECBA
:103A40002FF036C47FF437C480F427EC2AF0000945
:103A50002CE0C2EC30F00C01152904010FEC2EF023
:103A600015CC02FC0C01030E176F0C0E186F0C0125
:103A70000251020700090AE017CCE9FF18CCEAFF5F
:103A8000172B000E1823D3EC30F0F1D73CC47EF492
:103A900004EC2AF004013C0E946F0C0E956F29CCB7
:103AA00093F47AEC2BF0000907E15FEC30F01EC4D0
:103AB000CEF1F2EC74F0000C3CCC7EF404EC2AF075
:103AC000FF0E0C013D5D07E1040E3D6F0401386BF4
:103AD000396B3A6B3B6B3DCC02FC3DCC7EF4C1ECC8
:103AE0002FF009E00251EA6A380FE96E040EEA226B
:103AF000EFCF7EF4F4D73D29010F1525020F010FFA
:103B0000026F00C421FC01C422FC1FCC00F420CCB5
:103B100001F4F2EC2EF0020E0C0102271DCC00F491
:103B20001ECC01F402CC7EF404EC2AF0020E0C014F
:103B30000225060F030F030F060F1625020F026F53
:103B40001BCC00F41CCC01F4F2EC2EF0020E0C01A4
:103B5000022504011A25020F030F0C01026F19CC74
:103B600000F41ACC01F4F2EC2EF021CC00F422CCBB
:103B700001F45FEC30F012EC76F01EC4CEF1F2EC02
:103B800074F0010C0C01046B106B116B050E126FBD
:103B90000C0E136F13EC2AF00C01056F102B000EA6
:103BA0001123300E055D01E0000C0401000E756F5D
:103BB0000C0E7CEC30F00C010E6F0F6BE8500F1107
:103BC00001E1000C010E0E1908E10F5106E1102B66
:103BD000000E112300CC06FC1FD0020E0E190BE1C3
:103BE0000F5109E1020E1027000E1123810E066FFE
:103BF00000CC07FC11D0030E0E190DE10F510BE1A3
:103C0000030E1027000E1123820E066F01CC07FC55
:103C100000CC08FC01D0000C00CC0CFC01CC0DFC4D
:103C20000401000E716F0C0E726F16EC29F0000982
:103C300001E1000C050E0C011025E96E0C0E11219E
:103C4000EA6E020EEF6E22EC30F0090E00CCEBFFB4
:103C5000005106E0000504E0030E005D01E0000CE9
:103C6000010ED7EC2FF0010EEF6E020ED7EC2FF005
:103C700000CCEFFF005102E0000532E141C46FF4D7
:103C800042C470F43FC46DF440C46EF4EAEC28F012
:103C9000000901E1000C0401040E736F0C0E746F37
:103CA00055EC29F0000901E1000C22EC30F0060E81
:103CB00004CCEBFF22EC30F0090EEB50000907E1D9
:103CC00022EC30F0060EEB50A50801E1000C3FC4D9
:103CD00055F840C456F881EC68F0030801E1000C87
:103CE0000C01045112007DEC2EF0000913E0F6ECFB
:103CF0002EF000CBEEFF01CBEEFF02CBEEFF03CBAD
:103D0000EEFF5BEC31F0000906E05BEC31F00108FE
:103D10000FE101D0000CF6EC2EF0060EEB50A508DA
:103D200007E07DEC2EF0000901E1000C7DEF2EF0A4
:103D30005BEC31F001081BE1F6EC2EF0060EEB50C7
:103D4000A50815E17DEC2EF000090FE0F6EC2EF051
:103D5000040E00CBEBFF7DEC2EF0000907E0F6EC43
:103D60002EF0050E00CBEBFF010C000C000C000C3C
:103D70000C01006B016B156B176B186B196B1A6BD1
:103D80001B6B1E6B1F6B206B216B226B236B2A6BD3
:103D90002B6B2E6B2F6B306B316B326B336B346B49
:103DA000356B366B376B386B396B3A6B3B6B3C6BF7
:103DB0003D6B3E6B3F6B406B416B426B436B040151
:103DC0000E6B0F6B0C6B0D6B0A6B0B6B106B116B2F
:103DD00047C428FC48C429FC00C42CFC01C42DFCA9
:103DE0000C01146B0F015B6B5C6B0401086B0C0125
:103DF0005E6B5F6B0F015D510B0A01E18ED3010A0F
:103E000001E11FD2030A01E186D1010A01E10FD1CC
:103E10000F0A01E1E1D0010A01E1CED0030A01E17C
:103E20009BD0010A01E184D0070A74E0010A68E02E
:103E3000030A3CE0010A02E084EF23F00C01426B2C
:103E4000436B6CEC31F0DAEC30F005E00401820EEB
:103E50007E6F04EC2AF000C432FC01C433FCDAECBF
:103E600030F002E0F4EC2DF0F4EC2DF089EC30F0C1
:103E7000F0EC2DF004010FEC2EF049C417FC70ECAF
:103E800031F049C47EF404EC2AF004014951490799
:103E900000090AE047C4E9FF48C4EAFF472B000EC7
:103EA0004823EFCF7EF4EFD70F015D2B0401A20E64
:103EB0000FEC2EF0DAEC30F005E00401820E7E6F9C
:103EC00004EC2AF000C434FC01C435FCDAEC30F018
:103ED00002E0F4EC2DF0F4EC2DF00401020EEFEC16
:103EE00030F0E1EC30F0030E8CEC2EF0020E8CEC96
:103EF0002EF0010E8CEC2EF0D3EC30F00F015D2B88
:103F000089EC30F000C436FC01C437FCF4EC2DF031
:103F10000F015D2B89EC30F000C438FC01C439FC82
:103F2000F4EC2DF00C01156B166B5D6B0F015D2B26
:103F300004013E0E7B6F0C0E7C6FDDEC29F0000956
:103F400001E1000C3ECCA7F43FCCA8F47DEC2DF0B1
:103F50000C01196F0F015D2B19CC1EFC0C011F6B9E
:103F6000206BF0EC2DF0010803E0DAEC30F01BE1FF
:103F7000C9EC30F018E156EC30F0146E1951D880CD
:103F8000145403E356EC30F01E6FE1EC30F0050EF4
:103F9000EB501F6F1E51195D146E000E145C03E38D
:103FA0001E51195D206F1ECC1AFC1F512003F350C7
:103FB0001E251B6F0F015D2B6CEC31F074EC31F0A2
:103FC00000C42AFC01C42BFCF4EC2DF0F4EC2DF021
:103FD0000F015B6B5C6B5D2B0C011E510CE102C48D
:103FE0003CFC03C43DFC0F010B0E5D6FCFEC2FF0CA
:103FF00030EC30F089D3152BE8EC2EF0E85003E1DB
:1040000036EC31F0D2D340513E5F41513F5B01511C
:10401000146E156A14503E5F15503F5BCFEC2FF0C5
:10402000C9EC30F002E130EC30F00F015D2B2AECEE
:104030002FF001E1BDD24BEC31F005E09EEC29F010
:10404000000901E1000CC9EC30F020E0C2EC30F0D6
:1040500000C42EFC01C42FFC14CC7EF404EC2AF026
:104060000C01020E246F0C0E256F14CC01FC0C0108
:104070000151010700090AE024CCE9FF25CCEAFF41
:10408000242B000E2523D3EC30F0F1D7DAEC30F0FE
:1040900019E028CC55F829CC56F881EC68F00C01D1
:1040A000186F0F015D6B4BEC31F005E1020E0C0156
:1040B000185D08E104D0030E0C01185D03E00F0148
:1040C000090E5D6F0401020EA96F0C0EAA6FB8EC09
:1040D0002DF0000918E00F015D5115E10C011E6B78
:1040E0001B6B0F015D6B29EC2EF04BCC01F763ECE1
:1040F00030F012EC30F00701036B0701040E026F81
:104100000701010E006F0F015D5101E1FDD2070EA5
:104110005D5D01E1F9D20C011E5101E01E071E5147
:1041200004E102C43CFC03C43DFC1B0729EC2EF057
:10413000E80401E184D065EC31F001E180D0C9EC04
:1041400030F001E17CD07FEC30F0CFEC2EF0C2EC0F
:1041500030F00401095103E025EC31F002D014CC19
:104160007EF4A4EC2EF003E045EC2EF0FAD7040127
:10417000095106E0F4EC2DF00C011429020F03D0D4
:10418000020E0C011425146E156AE85042271550D2
:104190004323F0EC2DF0000905E110EC31F0F2ECD6
:1041A00030F03AD0F0EC2DF0010803E0DAEC30F01A
:1041B00033E14BEC31F030E0E0EC2DF0A0082CE1E5
:1041C00021CC7EF404EC2AF0F4EC2DF0800E0C01EE
:1041D000215D10E1FBEC2EF003E0E1EC2FF0FDE1BE
:1041E000146E156A14BE1568145004010A13155094
:1041F0000B1312D0810E215D0FE1FBEC2EF003E0DA
:10420000E1EC2FF0FDE1146E156A14BE1568145030
:1042100004010E1315500F13DAEC30F005E0020E16
:104220000C014227000E4323040E0C01FEEC2DF07E
:104230000C01426B436B0F01070E5D6F65D20F01DE
:104240005D2B01EC31F07FEC30F0C2EC30F04BEC48
:1042500031F042E1CFEC2EF090EC2EF002E00C01B8
:104260004BD00401095103E025EC31F002D014CC0D
:104270007EF4A4EC2EF003E045EC2EF0FAD7040116
:10428000095102E0F4EC2DF004015D0E9A6F0C0E62
:104290009B6F0401440E986F0C0E996F45C496F401
:1042A00046C497F4AFEC2BF00C01016F5D5106E0B2
:1042B00015CCA6F45DCCA5F41FEC2EF00401095139
:1042C00004E00C011429020F03D0020E0C01142586
:1042D0000125426F436B6ED0E0EC2DF0A00809E0A1
:1042E0000401085106E1C9EC30F038E10C01210568
:1042F00035E190EC2EF003E00F015D6B000CCFEC8C
:104300002EF00401095103E025EC31F002D014CC69
:104310007EF4A4EC2EF003E045EC2EF0FAD7040175
:10432000095107E0F4EC2DF0020E0C011425010FE9
:1043300003D0020E0C011425426F436B45C49FF459
:1043400046C4A0F404019E6B0401440E9C6F0C0E45
:104350009D6FC4EC2CF00C01016F2CD065EC31F09A
:1043600006E0C9EC30F026E10C01210523E045C44C
:104370004CF446C44DF40401440E4A6F0C0E4B6FCE
:1043800050DA0C01016FE85015E1C8EC2FF0040180
:10439000095103E025EC31F002D014CC7EF4A4ECFA
:1043A0002EF003E045EC2EF0FAD70401095102E0AB
:1043B000F4EC2DF00C01015170E14BEC31F06DE0AB
:1043C000F0EC2DF0000902E110EC31F0F2EC30F0ED
:1043D00065EC31F003E0C9EC30F008E1F0EC2DF0D1
:1043E000010804E112EC30F0F7EC30F0E0EC2DF0D5
:1043F000A00806E0C9EC30F007E10C01210504E15A
:104400000C01020E016F0FD065EC31F006E0C9EC33
:1044100030F009E10C01210506E00C011429020F1E
:10442000020F426F436BFBEC2EF003E0E1EC2FF048
:10443000FDE1146E156A14BE1568145004010C13C6
:1044400015500D13FBEC2EF003E0E1EC2FF0FDE135
:10445000146E156A14BE1568145004010A13155021
:104460000B13FBEC2EF003E0E1EC2FF0FDE1146EFA
:10447000156A14BE1568145004010E1315500F135D
:10448000FBEC2EF003E0E1EC2FF0FDE1146E156A79
:1044900014BE156818EC30F013D065EC31F005E06F
:1044A000C9EC30F00DE121050BE00401085103E0F7
:1044B000E5EC2FF005D0020E0C010125426F436B95
:1044C000E0EC2DF0A00806E0C9EC30F005E10C01AD
:1044D000210502E1E5EC2FF0040E0C014EEC31F069
:1044E000C9EC30F011E1F0EC2DF0010803E0DAEC5A
:1044F00030F00AE10C011E5107E1A3EC2FF001E3BB
:10450000FAD00F010B0E02D00F01070E5D6F0C01E8
:10451000426B436B0401086BF7D00C011C6B1F51FD
:104520001C5D01E3F1D03CCC02F43DCC03F41D6BE7
:1045300020511D5D01E3E5D01D5103E12051195DBE
:10454000156F152B1A511D25010F10C414F011C43D
:1045500015F005E0D89015321432E804FBE1145050
:10456000010B14E00C011B07E8EC2EF020511D5D3F
:1045700001E1C4D0040102510C0140250401026F85
:1045800003510C0141210401036FB8D00C011B51F0
:1045900001E01B0701EC31F07FEC30F01CCC23FC78
:1045A000E8EC2EF0E85001E1ACD02AEC2FF00AE163
:1045B00036EC31F068EC30F00101040EB95F000E0A
:1045C000BA5BF5D0CFEC2EF04BEC31F005E09EEC71
:1045D00029F0000901E195D029EC2EF0820E215D31
:1045E00009E10401440E6B6F0C0E6C6F48EC28F06F
:1045F0000C01016F215135E1C8EC2FF0C2EC30F015
:104600000401095108E00C01142904010FEC2EF0FB
:104610000C01142B04D014CC7EF404EC2AF00C0111
:1046200022512207000903E045EC2EF0F6D70401E1
:10463000095102E0F4EC2DF0F7EC30F0020E0C0121
:104640001425020F426F436BFBEC2EF003E0E1EC0C
:104650002FF0FDE1146E156A14BE156818EC30F0E9
:104660001DD001511BE045C45CF446C45DF4040157
:10467000230E5A6F0C0E5B6F0401140E586F0C0E54
:10468000596F0401020E566F0C0E576F0401440E51
:10469000546F0C0E556F06DA0C01016F0C010151BD
:1046A0001FE1C8EC2FF0C2EC30F014CC7EF4A4EC87
:1046B0002EF003E045EC2EF0FAD7F7EC30F0FBECEF
:1046C0002EF003E0E1EC2FF0FDE1146E156A14BE4C
:1046D000156818EC30F0020E0C011425020F02D000
:1046E000020E0125426F436B040E4EEC31F00C01BB
:1046F000A3EC2FF003E3010E006F3FD00C011D2B44
:1047000017D70C011C2B0BD70C011E5102E0FAEF3E
:104710001EF01B5102E0FAEF1EF00F015D6B38EC4A
:104720002FF02BE2C9EC30F028E00401A66B040165
:10473000010EA56F1FEC2EF00C0E0F015B6F5C6B72
:1047400034CC00F435CC01F427EC30F05BCF7EF4B0
:1047500004EC2AF0AEEC2FF063EC30F0F2EC2EF02B
:104760005BCF7EF404EC2AF02ACC00F42BCC01F4CD
:1047700012EC30F068EC30F051D0005118E0C9EC88
:1047800030F015E1040EFAEC30F00401005D006F2A
:1047900015500159016F040E0C01FAEC30F00F01B5
:1047A0005B5D5B6F15505C595C6F68EC30F001EC41
:1047B00031F038EC2FF0B9E32ACC00F42BCC01F423
:1047C00027EC30F000EC2FF0040E54EC31F0060E24
:1047D0005B27000E5C23030E5B27000E5C23030E99
:1047E0005B27000E5C2334CC00F435CC01F4DAEC0A
:1047F00030F002E027EC30F000EC2FF0DAEC30F093
:1048000002E0AEEC2FF001EC31F063EC30F0DAECCA
:1048100030F002E027EC30F000EC2FF00F015D6B80
:10482000010C0C01626B956B966B010E9B6F996B83
:10483000606B2AEC31F0100B08E12AEC31F0100B20
:104840000BE12AEC31F0040B07E10C01010E996F2A
:1048500038EC30F001E1000CABEC2EF001E1000C83
:1048600090CC70F808017E0E6E6F0C0E6F6F4AC40C
:104870006CF84BC46DF84CC46AF84DC46BF896ECF8
:1048800069F0010808E038EC30F001E1000CABEC15
:104890002EF0E6E1000C0C017E0E7C6F0C0E7D6F9D
:1048A00090CC60FC67EC2FF01CE000C495FC01C4C8
:1048B00096FC010E95250401006F000E0C01962157
:1048C0000401016F0C016051600700090AE07CCC13
:1048D000E9FF7DCCEAFF7C2B000E7D23D3EC30F08A
:1048E000F1D790CC60FC73EC2EF0060EEB50040177
:1048F000526F17EC2EF0EECF93FCEDCF94FC2AEC28
:1049000031F0040B1EE167EC2FF018E0F4EC2DF011
:104910000C01602BEEEC2FF0902BF7EC2FF045EC18
:104920002FF00C01626FE85009E197CC00F498CCAD
:1049300001F4F2EC30F00C01020E626F0C016251D6
:10494000AED00C019A6B99050FE108014E0E766FFF
:10495000040E776F08019A0E746F0C0E756F73EC6E
:104960002EF0CCEC30F059E073EC2EF006EC31F088
:10497000EFCF92FC40EC30F00401536B0001910E3C
:10498000D86F0C0E80EC31F09B0ED86F0C0EEEEC55
:104990002DF00C019B050BE100019C0ED86F0C0E55
:1049A000EEEC2DF00C019C516A6F6B6B1AD0020E6D
:1049B0009B5D17E10CEC2FF09D0EDB6F0C0E12ECE3
:1049C0002FF00C016A6B6B6B9D516A6F6B6B9DCC0A
:1049D0006BFC6A6B9E51146E156A14506A13155065
:1049E0006B13696B0001690ED86F0C0EEEEC2DF0A5
:1049F00073EC2EF0170EEB500C017A6F995112E107
:104A000008017A0E686F0C0E696F6ACC66F86BCC81
:104A100067F869EC69F0000905E195CC00F496CCE3
:104A200001F413D70C016893689968854CC49FF40E
:104A30004DC4A0F40401010E9E6F0401630E9C6F2F
:104A40000C0E9D6FC4EC2CF00401532773EC2EF078
:104A5000170E7ACCEBFF53510C0160270401535120
:104A60000C01902767EC2FF004E0EEEC2FF0F7EC50
:104A70002FF073EC2EF006EC31F092CCEFFF73ECDC
:104A80002EF0070E93CCEBFF080E94CCEBFF73ECEB
:104A90002EF0060E52C4EBFF45EC2FF00C01602700
:104AA000605112000C01010E8C6F636B646B656BBF
:104AB000676B686B846B856B866B876B886B896BA8
:104AC0008B6B666B8A6B5AC4E9FF5BC4EAFFEFCF5E
:104AD00065FC626F5AC4E9FF5BC4EAFFEF50D880FF
:104AE000625517E309EC31F0100B08E109EC31F0E5
:104AF000100B0CE109EC31F0040B08E1642B0C0104
:104B0000010E666F77EC2FF001E1000C0C01622BB7
:104B1000E1D709EC31F0040B38E06551D8806455D9
:104B200034E35AEC2EF0170EEB500801656F17ECCA
:104B30002EF0EECF63F8EDCF64F84AEC69F000098F
:104B400018E15AEC2EF0D4EC2FF0E9CF68F8EACF58
:104B500069F85AEC2EF017EC2EF0EECF66F8EDCF98
:104B600067F869EC69F0000904E177EC2FF001E1E6
:104B7000000C0C016451D880655505E25AEC2EF00A
:104B8000D4EC2FF0EF2A642BC8D7D7EC2EF001E13C
:104B9000000C63CC70F856C46EF857C46FF854C458
:104BA0006CF855C46DF85CC46AF85DC46BF896EC9B
:104BB00069F0010808E077EC2FF001E1000CD7EC78
:104BC0002EF0E7E1000C00C486FC01C487FCC2ECB7
:104BD00030F000C484FC01C485FC63CC8AFC010E67
:104BE0000C0184250401006F000E0C0185210401D5
:104BF000016F0C018A518A0700090BE056C4E9FFD6
:104C000057C4EAFFD3EC30F00401562B000E5723B3
:104C1000F0D758C4E9FF59C4EAFF63CCEFFF63CC77
:104C20008AFC5AEC2EF0060EEB5004015E6F17EC76
:104C30002EF0EECF67FCEDCF68FC09EC31F0040BF1
:104C40000FE1F4EC2DF00C018A2B00EC30F0632B1B
:104C500009EC30F051EC2FF00C01616FE850A3D05B
:104C60000C01606B660514E10801600E766F040E9E
:104C7000776F0801600E746F0C0E756F5AEC2EF092
:104C8000CCEC30F005E186CC00F487CC01F437D7CA
:104C90005AEC2EF006EC31F0EFCF83FC40EC30F014
:104CA00004015F6B0001820ED86F0C0E80EC31F0B6
:104CB0008C0ED86F0C0EEEEC2DF00C018C050BE178
:104CC00000018D0ED86F0C0EEEEC2DF00C018D5105
:104CD000706F716B1AD0020E8C5D17E10CEC2FF027
:104CE0008E0EDB6F0C0E12EC2FF00C01706B716BE3
:104CF0008E51706F716B8ECC71FC706B8F51146E16
:104D0000156A14507013155071136F6B00016F0EFC
:104D1000D86F0C0EEEEC2DF05AEC2EF0170EEB5077
:104D20000C01806F6E936E996E855CC49FF45DC4B8
:104D3000A0F40401010E9E6F0401690E9C6F0C0E1D
:104D40009D6FC4EC2CF004015F275AEC2EF0170E77
:104D500080CCEBFF5F510C018A2704015F510C01ED
:104D600063275CC4E9FF5DC4EAFF090EEB5003084A
:104D700004E000EC30F009EC30F05AEC2EF006ECD8
:104D800031F083CCEFFF5AEC2EF0070E67CCEBFF2F
:104D9000080E68CCEBFF5AEC2EF0060E5EC4EBFF5B
:104DA00051EC2FF00C018A278A5112000C01010EE0
:104DB000606F696B0401096F64C4E9FF65C4EAFFB1
:104DC000090EEB500C01646F060EEB50656F040189
:104DD00004A1000C0C016C6B6D6B6E6B6F6B68C487
:104DE00063FC68C466FC66C467FC67C468FC0001B9
:104DF000E76B6CCCE3F06DCCE4F06ECCE5F06FCCFF
:104E0000E6F0DDEC30F05FEC2EF012EC2EF078ECFA
:104E100031F00001610ED86F0C0EEEEC2DF00C019C
:104E200069510AE161CC62FC6CCC70FC6DCC71FC08
:104E30006ECC72FC6FCC73FC12EC2EF0050EF8EC0D
:104E40002DF0C6EC30F0800B37E00001600ED86F1B
:104E50000C0EEEEC2DF00C0160050EE10001740E5D
:104E6000D86F0C0EEEEC2DF00C017451E66E12ECC6
:104E70002EF0E6EC30F020D0020E605D1DE10CEC6F
:104E80002FF0750EDB6F0C0E12EC2FF012EC2EF0E3
:104E90006DEC30F00C017551E66E12EC2EF0E6EC84
:104EA00030F012EC2EF01CEC31F07651146E156AD5
:104EB00012EC2EF05FEC31F0C6EC30F0080B02E0A3
:104EC00090EC30F09DEC2FF00C01615D2BE077EC65
:104ED00030F001E183D0690505E1C6EC30F0080B44
:104EE00001E1BED0C6EC30F0080B01E1B9D0000101
:104EF000E76B6ACCE3F06BCCE4F00001E56BE66BAA
:104F0000DDEC30F00C016C6F6D6B6E6B6F6B800BBA
:104F100003E06D696E696F695DEC2FF00C01010EA5
:104F2000696F65D76307672B000E6823C6EC30F006
:104F3000100B38E1C6EC30F0010B02E090EC30F0E1
:104F400012EC2EF01EEC30F012EC2EF0060EF8EC07
:104F50002DF0B4EC2FF012EC2EF018EC31F0A00E86
:104F60000C01655D05E1635103E10401096B78D033
:104F7000A00E655D05E1630503E19DEC2FF00FE0F8
:104F8000A10E655D07E1635105E10401010E096FA2
:104F9000086F24D0A50E655D21E163051FE10401C2
:104FA000096B1CD063050BE19DEC2FF008E10401B7
:104FB000096BC6EC30F0100B01E119D751D06351E9
:104FC0000AE1C6EC30F0100B03E1A00E655D06E1CE
:104FD0000401096B45D05DEC2FF009D712EC2EF0DF
:104FE000170E61CCEBFF67CCE9FF68CCEAFFEFCF8F
:104FF00061FC12EC2EF05AEC30F00C0163050AE172
:105000009DEC2FF0E66E12EC2EF0D4EC2FF044EC79
:1050100030F0010C635106E112EC2EF0D4EC2FF0CD
:10502000EF6A010C6351010803E3800E611517E07C
:1050300012EC2EF0180E68EC31F0EF68A00E655DF2
:1050400003E1645101E1020CA00E655D07E1640516
:1050500005E177EC30F001E1810C800C000C010CD3
:10506000A00E0C01655D0AE1645101E1020C6405CA
:105070000EE177EC30F001E1810C800CA10E655D52
:1050800003E0A50E655D03E1640501E1820C000CFF
:105090000B01010E026FD7EC30F0100B11E1D7ECD1
:1050A00030F0080B04E1D7EC30F0010B08E0000110
:1050B000E76B1AEC2EF00F0E68EC2EF001D0000C0E
:1050C0005FEC2EF01AEC2EF078EC31F01AEC2EF0AA
:1050D000040EF8EC2DF01AEC2EF0050EF8EC2DF085
:1050E000D7EC30F0800B37E00001020ED86F0B0ECA
:1050F000EEEC2DF00B0102050EE10001030ED86F5E
:105100000B0EEEEC2DF00B010351E66E1AEC2EF0B7
:10511000E6EC30F020D0020E025D1DE10CEC2FF029
:10512000040EDB6F0B0E12EC2FF01AEC2EF06DEC70
:1051300030F00B010451E66E1AEC2EF0E6EC30F084
:105140001AEC2EF01CEC31F00551146E156A1AECB5
:105150002EF05FEC31F0D7EC30F0080B04E1D7EC27
:1051600030F0010B1AE00001000ED86F0B0E80EC3E
:1051700031F0010ED86F0B0EEEEC2DF000CB14F0D9
:1051800001CB15F0166A176A1AEC2EF00F0E68ECB8
:1051900031F000CBEEFF3EEC2EF0D7EC30F0100BF0
:1051A0008FE11AEC2EF01EEC30F01AEC2EF0060E09
:1051B000F8EC2DF0B4EC2FF01AEC2EF018EC31F0E6
:1051C0001AEC2EF05AEC30F01AEC2EF0D4EC2FF052
:1051D000EF6A010C28D90B01006F040E005D01E09D
:1051E000000C21D90B01016F6FC4E9FF70C4EAFF05
:1051F000EF6E0151080801E2000C0B01015101079B
:1052000000090EE010D90B01006F04016DC4E9FF25
:105210006EC4EAFF6D2B000E6E2300CBEFFFEDD7BF
:105220006DC4E9FF6EC4EAFFEF6A010C0C01186B54
:10523000196B1A6B1B6BF7D8020801E0000C040114
:10524000180E756F0C0E7CEC30F0000901E1000CBB
:10525000D880040E0C011855000E1955000E1A5571
:10526000000E1B5501E2000C146B156B166B176BCF
:105270001851180700090CE0D6D8E66E0C01185139
:10528000EA6A140FE96E0C0EEA2244EC30F0F0D713
:1052900071C4E9FF72C4EAFF14CCEEFF15CCEEFF37
:1052A00016CCEEFF17CCEEFF010CBDD80B01006F42
:1052B000A00E005D0AE0A10E005D07E0A30E005DF8
:1052C00004E0A50E005D01E0000C73C4E9FF74C4A6
:1052D000EAFF00CBEFFF0401010E756F0B0E7CEFB0
:1052E00030F00B01066B076B086B9DD80B01056F47
:1052F000066F05AF17D0059F0551020801E2000CAB
:105300000529086F0551050700090EE08CD8E66EE7
:105310000B010551EA6A060FE96E0B0EEA2244EC16
:1053200030F0F0D7010E086F75C4E9FF76C4EAFFCC
:1053300006CBEEFF07CBEDFF0851120074D80B012E
:10534000006F050E005D01E0000C6DD8000901E062
:10535000000C010C68D8060801E0000C0401000EE6
:10536000756F0B0E7CEC30F0000901E1000C0B01B5
:10537000120ED8800055000E015501E2000C79C4D0
:10538000E9FF7AC4EAFF00CBEFFF0B0100510007F1
:1053900000090DE048D8E66E040177C4E9FF78C43F
:1053A000EAFF772B000E782344EC30F0EED777C479
:1053B000E9FF78C4EAFFEF68010C35D8300801E056
:1053C000000C0401000E756F0B0E7CEC30F00B012D
:1053D000046FE85001E1000C042B7BC4E9FF7CC49E
:1053E000EAFF00CBEEFF01CBEDFF045112007DC4BC
:1053F000D3F142EC75F048EC30F0F9E00401026BB7
:10540000036B006B016B120000C4CFF101C4D0F13B
:105410000AEC75F07EC4D4F166EC75F00401002B43
:10542000000E01231200040102C4D1F103C4D2F121
:10543000022B000E032331EC75F001010B0EE46F1B
:105440000B0EE56FE6EC76F00B010B5112000B0131
:105450000B6B0C6B0D6B0E6B81C491F482C492F4D8
:105460000BCB8DF40CCB8EF40DCB8FF40ECB90F4D4
:10547000CFD82DEC31F0100B2FE12DEC31F0800B5B
:105480001CE08CEC2FF0D3DBEECF14F0EFCF15F057
:1054900004017F51141811E1805115180EE185C4E3
:1054A0008BF486C48CF483C489F484C48AF481C4E4
:1054B00087F482C488F478EF2AF02DEC31F0080BE1
:1054C00004E12DEC31F0010B12E00001E76B8CECF4
:1054D0002FF00F0E68EC2EF00CEC31F006C00BFB39
:1054E00007C00CFB08C00DFB09C00EFBB5D7000CB4
:1054F0000C01A36BA46BA56BA66B87C4E9FF88C4E2
:10550000EAFFEECF9FFCEECFA0FCEECFA1FCEFCFE9
:10551000A2FCC56BC46B0401AB0E916F0C0E926FB5
:10552000A3CC8DF4A4CC8EF4A5CC8FF4A6CC90F4AF
:105530006FD80C01C4510401EA6A8925E96E8A51C9
:10554000EA22AFCCEFFF9F0EE96E0C0EEA6EEE5032
:105550000C01A31912E1EE50A4190FE1EE50A519A8
:105560000CE1EE50A61909E108E1C42B8BC4E9FF58
:105570008CC4EAFFC4CCEFFF010CC551010A3BE02B
:10558000010AC9E1B0A735D0BACCA7FCBBCCA8FCB6
:10559000BCCCA9FCBDCCAAFC0001E76BBACCE3F003
:1055A000BBCCE4F0BCCCE5F0BDCCE6F0DDEC30F0FB
:1055B0000CEC31F006C0A7FC07C0A8FC08C0A9FC91
:1055C00009C0AAFC9F0EE96E0C0EEA6E0C01065093
:1055D000EE5C0750EE580850EE580950EE5809E3BB
:1055E000A7CCA3FCA8CCA4FCA9CCA5FCAACCA6FC67
:1055F00092D7010EC56FB0A9000CC42BBECCA3FC82
:10560000BFCCA4FCC0CCA5FCC1CCA6FCC56B83D789
:105610000B01010E036F0001E76B8DC4E3F08EC434
:10562000E4F08FC4E5F090C4E6F0DDEC30F04BDB45
:105630008DC4EEFF8EC4EEFF8FC4EEFF90C4EEFF6C
:1056400042DB040ED5DA3FDB050ED2DA3CDB050E79
:10565000EB500B01006F00AF2FD00001030ED86F8D
:105660000B0EBCDA0B0103050DE1046B0001040E07
:10567000D86F0B0EB3DA0B010451E66E24DBE6ECB7
:1056800030F01AD0020E035D17E1C6DB050EDB6FAA
:105690000B0EC8DB18DB6DEC30F00B010551E66E2C
:1056A00012DBE6EC30F00FDB1CEC31F00651146E2F
:1056B000156A09DB5FEC31F000A702D0A6EC30F0F0
:1056C0000B0100A904D0FBDAFEDA130E0DD000A105
:1056D00002D0A6EC30F0F7DA1EEC30F0F4DA060E69
:1056E00087DAEDDAF0DA0B0E68EC31F014C0EEFF79
:1056F0003EEF2EF00A0E0401E76E9319E8AE02D0D9
:10570000E73402D0E750935D08E32BEC30F0EF6A0A
:105710002BEC30F0EE52EF6A000CB6EC2FF017AE27
:1057200002D01868196829DB0800F550E66E2BECEA
:1057300030F044EC30F0B6EC2FF017AE02D0186821
:1057400019681BDBF62A000EF722F8220800F55034
:10575000E66E2BEC30F0EE5244EC30F0010C0C0114
:10576000616B626B636B656B646BE9EC30F0100B23
:1057700008E1E9EC30F0020B04E1E9EC30F0200B39
:105780000DE130EC31F002E1020E07D033EC31F0E4
:1057900003E0ECEC30F002E1110E656FECEC30F060
:1057A00004E041DE0C01626F1DDB0C01642B04017F
:1057B000660E946F0C0E956F9BDA060EEB5004018B
:1057C000936F98DF00090FE130EC31F003E10C0139
:1057D000030E08D033EC31F003E0ECEC30F003E1E1
:1057E0000C01070E656F0C016651625D0DE030EC37
:1057F00031F002E1030E07D033EC31F003E0ECECC2
:1058000030F002E1070E656FECEC30F004E00BDEE7
:105810000C01636FE7DA0C01642B63517F080DE222
:1058200030EC31F002E1030E07D033EC31F003E04D
:10583000ECEC30F002E1080E656FE9EC30F0040B9F
:1058400006E17CEC31F0000902E0020E656F686B46
:10585000696B6A6B6B6B606BFF0E675D40E0635159
:1058600004082CE363516307000912E0ECEC30F00C
:1058700004E0D9DD0C01616FB5DA0C016351EA6A0D
:10588000680FE96E0C0EEA2261CCEFFF642BEAD7B9
:10589000655171E1B8DA60CC5EF8BCEC30F06BE1D8
:1058A00030EC31F002E10C0164D033EC31F003E074
:1058B000ECEC30F060E10C010A0E5CD030EC31F021
:1058C00058E033EC31F003E0ECEC30F054E1E9EC7B
:1058D00030F0020B02E0110E4DD0080E4BD07CECE4
:1058E00031F008015A6F63CC59F8A1D9EECF57F8BF
:1058F000EDCF58F8D9EC68F0000916E130EC31F042
:1059000003E10C01030E0FD033EC31F003E0ECECBB
:1059100030F00AE1E9EC30F0020B03E00C01110E6B
:1059200002D00C01080E656F0C016351630700097A
:1059300017E0ECEC30F004E076DD0C01686F52DA31
:105940000C01642B6551F0E15EDA6051602B0801B7
:105950005E6FBCEC30F0E8E10C01030E656FE4D73C
:10596000655109E150DA08015E69BCEC30F003E1F1
:105970000C01030E656F9AC4E9FF9BC4EAFF65CC76
:10598000EFFF0C01645112000C01B46BB56BB86BE6
:10599000B96BBA6BBB6B62EC31F0100B01E0000C21
:1059A00062EC31F0040B06E142DA170EEB5000080E
:1059B00001E2000C3CDA060EEB50B36F0401BC0EA2
:1059C000946F0C0E956FB3CC93F494DE000901E153
:1059D000000C04019E510CE197D90AE0BCCC7EF486
:1059E00013DD00C4B4FC01C4B5FCBDCC7EF40CDDF9
:1059F00062EC31F0020B1CE00001E76B18DA0B0ED1
:105A000067D90001B20ED86F0C0EE8D8B2CCB1FC49
:105A10000C01B151B10700093FE00001BE0ED86F83
:105A20000C0EDCD871D9F4E0BECC7EF4EDDCF0D7FE
:105A30000C01B06BB86BB96BBA6BBB6BB26B080186
:105A4000B80E766F0C0E776F0801B00E746F0C0EE7
:105A5000756FEDD9A1DB1BE0FF0E0C01BD5D10E001
:105A6000BDCCB2FC0C01BD5117E04ED9FBE0BD0727
:105A7000BD51EA6AB80FE96E0C0EEA2294DBF2D748
:105A8000B22B42D905E0B8CC7EF4BEDC01D0000CCC
:105A9000FF0E0C01B05DD3E104019E5114E134D935
:105AA0000FE000C4B6FC01C4B7FCB4CC00F4B5CC24
